{"contracts/CertificateRegistry.sol":{"CertificateRegistry":{"abi":[{"inputs":[],"stateMutability":"nonpayable","type":"constructor"},{"anonymous":false,"inputs":[{"indexed":true,"internalType":"string","name":"fileHash","type":"string"},{"indexed":false,"internalType":"string","name":"studentName","type":"string"},{"indexed":false,"internalType":"string","name":"institute","type":"string"}],"name":"CertificateRegistered","type":"event"},{"inputs":[{"internalType":"string","name":"","type":"string"}],"name":"certificates","outputs":[{"internalType":"string","name":"fileHash","type":"string"},{"internalType":"string","name":"studentName","type":"string"},{"internalType":"string","name":"course","type":"string"},{"internalType":"string","name":"institute","type":"string"},{"internalType":"uint256","name":"timestamp","type":"uint256"},{"internalType":"address","name":"issuer","type":"address"},{"internalType":"bool","name":"isValid","type":"bool"}],"stateMutability":"view","type":"function"},{"inputs":[],"name":"owner","outputs":[{"internalType":"address","name":"","type":"address"}],"stateMutability":"view","type":"function"},{"inputs":[{"internalType":"string","name":"_fileHash","type":"string"},{"internalType":"string","name":"_studentName","type":"string"},{"internalType":"string","name":"_course","type":"string"},{"internalType":"string","name":"_institute","type":"string"}],"name":"registerCertificate","outputs":[],"stateMutability":"nonpayable","type":"function"},{"inputs":[{"internalType":"string","name":"_fileHash","type":"string"}],"name":"verifyCertificate","outputs":[{"internalType":"bool","name":"isValid","type":"bool"},{"internalType":"string","name":"studentName","type":"string"},{"internalType":"string","name":"course","type":"string"},{"internalType":"string","name":"institute","type":"string"},{"internalType":"uint256","name":"timestamp","type":"uint256"},{"internalType":"address","name":"issuer","type":"address"}],"stateMutability":"view","type":"function"}],"evm":{"bytecode":{"linkReferences":{},"object":"608060405234801561001057600080fd5b5033600160006101000a81548173ffffffffffffffffffffffffffffffffffffffff021916908373ffffffffffffffffffffffffffffffffffffffff1602179055506111d7806100616000396000f3fe608060405234801561001057600080fd5b506004361061004c5760003560e01c806348f6d2e2146100515780638b23d8751461006d5780638da5cb5b146100a25780638f2b91ea146100c0575b600080fd5b61006b60048036038101906100669190610a9d565b6100f6565b005b61008760048036038101906100829190610b74565b6102f0565b60405161009996959493929190610cb1565b60405180910390f35b6100aa610678565b6040516100b79190610d27565b60405180910390f35b6100da60048036038101906100d59190610b74565b61069e565b6040516100ed9796959493929190610d42565b60405180910390f35b600080856040516101079190610e09565b9081526020016040518091039020600001805461012390610e4f565b905014610165576040517f08c379a000000000000000000000000000000000000000000000000000000000815260040161015c90610ecc565b60405180910390fd5b6040518060e001604052808581526020018481526020018381526020018281526020014281526020013373ffffffffffffffffffffffffffffffffffffffff168152602001600115158152506000856040516101c19190610e09565b908152602001604051809103902060008201518160000190816101e49190611098565b5060208201518160010190816101fa9190611098565b5060408201518160020190816102109190611098565b5060608201518160030190816102269190611098565b506080820151816004015560a08201518160050160006101000a81548173ffffffffffffffffffffffffffffffffffffffff021916908373ffffffffffffffffffffffffffffffffffffffff16021790555060c08201518160050160146101000a81548160ff021916908315150217905550905050836040516102a99190610e09565b60405180910390207fa8c9a80654a8b70efd2411a076ca8d55b1ed22d036b4e24d1bf2a2375ed9491f84836040516102e292919061116a565b60405180910390a250505050565b600060608060606000806000808860405161030b9190610e09565b90815260200160405180910390206040518060e001604052908160008201805461033490610e4f565b80601f016020809104026020016040519081016040528092919081815260200182805461036090610e4f565b80156103ad5780601f10610382576101008083540402835291602001916103ad565b820191906000526020600020905b81548152906001019060200180831161039057829003601f168201915b505050505081526020016001820180546103c690610e4f565b80601f01602080910402602001604051908101604052809291908181526020018280546103f290610e4f565b801561043f5780601f106104145761010080835404028352916020019161043f565b820191906000526020600020905b81548152906001019060200180831161042257829003601f168201915b5050505050815260200160028201805461045890610e4f565b80601f016020809104026020016040519081016040528092919081815260200182805461048490610e4f565b80156104d15780601f106104a6576101008083540402835291602001916104d1565b820191906000526020600020905b8154815290600101906020018083116104b457829003601f168201915b505050505081526020016003820180546104ea90610e4f565b80601f016020809104026020016040519081016040528092919081815260200182805461051690610e4f565b80156105635780601f1061053857610100808354040283529160200191610563565b820191906000526020600020905b81548152906001019060200180831161054657829003601f168201915b50505050508152602001600482015481526020016005820160009054906101000a900473ffffffffffffffffffffffffffffffffffffffff1673ffffffffffffffffffffffffffffffffffffffff1673ffffffffffffffffffffffffffffffffffffffff1681526020016005820160149054906101000a900460ff16151515158152505090506000816000015151036106435760008060006040518060200160405280600081525091906040518060200160405280600081525091906040518060200160405280600081525091909650965096509650965096505061066f565b8060c0015181602001518260400151836060015184608001518560a00151965096509650965096509650505b91939550919395565b600160009054906101000a900473ffffffffffffffffffffffffffffffffffffffff1681565b6000818051602081018201805184825260208301602085012081835280955050505050506000915090508060000180546106d790610e4f565b80601f016020809104026020016040519081016040528092919081815260200182805461070390610e4f565b80156107505780601f1061072557610100808354040283529160200191610750565b820191906000526020600020905b81548152906001019060200180831161073357829003601f168201915b50505050509080600101805461076590610e4f565b80601f016020809104026020016040519081016040528092919081815260200182805461079190610e4f565b80156107de5780601f106107b3576101008083540402835291602001916107de565b820191906000526020600020905b8154815290600101906020018083116107c157829003601f168201915b5050505050908060020180546107f390610e4f565b80601f016020809104026020016040519081016040528092919081815260200182805461081f90610e4f565b801561086c5780601f106108415761010080835404028352916020019161086c565b820191906000526020600020905b81548152906001019060200180831161084f57829003601f168201915b50505050509080600301805461088190610e4f565b80601f01602080910402602001604051908101604052809291908181526020018280546108ad90610e4f565b80156108fa5780601f106108cf576101008083540402835291602001916108fa565b820191906000526020600020905b8154815290600101906020018083116108dd57829003601f168201915b5050505050908060040154908060050160009054906101000a900473ffffffffffffffffffffffffffffffffffffffff16908060050160149054906101000a900460ff16905087565b6000604051905090565b600080fd5b600080fd5b600080fd5b600080fd5b6000601f19601f8301169050919050565b7f4e487b7100000000000000000000000000000000000000000000000000000000600052604160045260246000fd5b6109aa82610961565b810181811067ffffffffffffffff821117156109c9576109c8610972565b5b80604052505050565b60006109dc610943565b90506109e882826109a1565b919050565b600067ffffffffffffffff821115610a0857610a07610972565b5b610a1182610961565b9050602081019050919050565b82818337600083830152505050565b6000610a40610a3b846109ed565b6109d2565b905082815260208101848484011115610a5c57610a5b61095c565b5b610a67848285610a1e565b509392505050565b600082601f830112610a8457610a83610957565b5b8135610a94848260208601610a2d565b91505092915050565b60008060008060808587031215610ab757610ab661094d565b5b600085013567ffffffffffffffff811115610ad557610ad4610952565b5b610ae187828801610a6f565b945050602085013567ffffffffffffffff811115610b0257610b01610952565b5b610b0e87828801610a6f565b935050604085013567ffffffffffffffff811115610b2f57610b2e610952565b5b610b3b87828801610a6f565b925050606085013567ffffffffffffffff811115610b5c57610b5b610952565b5b610b6887828801610a6f565b91505092959194509250565b600060208284031215610b8a57610b8961094d565b5b600082013567ffffffffffffffff811115610ba857610ba7610952565b5b610bb484828501610a6f565b91505092915050565b60008115159050919050565b610bd281610bbd565b82525050565b600081519050919050565b600082825260208201905092915050565b60005b83811015610c12578082015181840152602081019050610bf7565b60008484015250505050565b6000610c2982610bd8565b610c338185610be3565b9350610c43818560208601610bf4565b610c4c81610961565b840191505092915050565b6000819050919050565b610c6a81610c57565b82525050565b600073ffffffffffffffffffffffffffffffffffffffff82169050919050565b6000610c9b82610c70565b9050919050565b610cab81610c90565b82525050565b600060c082019050610cc66000830189610bc9565b8181036020830152610cd88188610c1e565b90508181036040830152610cec8187610c1e565b90508181036060830152610d008186610c1e565b9050610d0f6080830185610c61565b610d1c60a0830184610ca2565b979650505050505050565b6000602082019050610d3c6000830184610ca2565b92915050565b600060e0820190508181036000830152610d5c818a610c1e565b90508181036020830152610d708189610c1e565b90508181036040830152610d848188610c1e565b90508181036060830152610d988187610c1e565b9050610da76080830186610c61565b610db460a0830185610ca2565b610dc160c0830184610bc9565b98975050505050505050565b600081905092915050565b6000610de382610bd8565b610ded8185610dcd565b9350610dfd818560208601610bf4565b80840191505092915050565b6000610e158284610dd8565b915081905092915050565b7f4e487b7100000000000000000000000000000000000000000000000000000000600052602260045260246000fd5b60006002820490506001821680610e6757607f821691505b602082108103610e7a57610e79610e20565b5b50919050565b7f436572746966696361746520616c726561647920726567697374657265640000600082015250565b6000610eb6601e83610be3565b9150610ec182610e80565b602082019050919050565b60006020820190508181036000830152610ee581610ea9565b9050919050565b60008190508160005260206000209050919050565b60006020601f8301049050919050565b600082821b905092915050565b600060088302610f4e7fffffffffffffffffffffffffffffffffffffffffffffffffffffffffffffffff82610f11565b610f588683610f11565b95508019841693508086168417925050509392505050565b6000819050919050565b6000610f95610f90610f8b84610c57565b610f70565b610c57565b9050919050565b6000819050919050565b610faf83610f7a565b610fc3610fbb82610f9c565b848454610f1e565b825550505050565b600090565b610fd8610fcb565b610fe3818484610fa6565b505050565b5b8181101561100757610ffc600082610fd0565b600181019050610fe9565b5050565b601f82111561104c5761101d81610eec565b61102684610f01565b81016020851015611035578190505b61104961104185610f01565b830182610fe8565b50505b505050565b600082821c905092915050565b600061106f60001984600802611051565b1980831691505092915050565b6000611088838361105e565b9150826002028217905092915050565b6110a182610bd8565b67ffffffffffffffff8111156110ba576110b9610972565b5b6110c48254610e4f565b6110cf82828561100b565b600060209050601f83116001811461110257600084156110f0578287015190505b6110fa858261107c565b865550611162565b601f19841661111086610eec565b60005b8281101561113857848901518255600182019150602085019450602081019050611113565b868310156111555784890151611151601f89168261105e565b8355505b6001600288020188555050505b505050505050565b600060408201905081810360008301526111848185610c1e565b905081810360208301526111988184610c1e565b9050939250505056fea264697066735822122069ed603766986f9f11802fdbbf0907aceebaecb06aaf6c8c4506baa3cd351b8b64736f6c63430008130033","opcodes":"PUSH1 0x80 PUSH1 0x40 MSTORE CALLVALUE DUP1 ISZERO PUSH2 0x10 JUMPI PUSH1 0x0 DUP1 REVERT JUMPDEST POP CALLER PUSH1 0x1 PUSH1 0x0 PUSH2 0x100 EXP DUP2 SLOAD DUP2 PUSH20 0xFFFFFFFFFFFFFFFFFFFFFFFFFFFFFFFFFFFFFFFF MUL NOT AND SWAP1 DUP4 PUSH20 0xFFFFFFFFFFFFFFFFFFFFFFFFFFFFFFFFFFFFFFFF AND MUL OR SWAP1 SSTORE POP PUSH2 0x11D7 DUP1 PUSH2 0x61 PUSH1 0x0 CODECOPY PUSH1 0x0 RETURN INVALID PUSH1 0x80 PUSH1 0x40 MSTORE CALLVALUE DUP1 ISZERO PUSH2 0x10 JUMPI PUSH1 0x0 DUP1 REVERT JUMPDEST POP PUSH1 0x4 CALLDATASIZE LT PUSH2 0x4C JUMPI PUSH1 0x0 CALLDATALOAD PUSH1 0xE0 SHR DUP1 PUSH4 0x48F6D2E2 EQ PUSH2 0x51 JUMPI DUP1 PUSH4 0x8B23D875 EQ PUSH2 0x6D JUMPI DUP1 PUSH4 0x8DA5CB5B EQ PUSH2 0xA2 JUMPI DUP1 PUSH4 0x8F2B91EA EQ PUSH2 0xC0 JUMPI JUMPDEST PUSH1 0x0 DUP1 REVERT JUMPDEST PUSH2 0x6B PUSH1 0x4 DUP1 CALLDATASIZE SUB DUP2 ADD SWAP1 PUSH2 0x66 SWAP2 SWAP1 PUSH2 0xA9D JUMP JUMPDEST PUSH2 0xF6 JUMP JUMPDEST STOP JUMPDEST PUSH2 0x87 PUSH1 0x4 DUP1 CALLDATASIZE SUB DUP2 ADD SWAP1 PUSH2 0x82 SWAP2 SWAP1 PUSH2 0xB74 JUMP JUMPDEST PUSH2 0x2F0 JUMP JUMPDEST PUSH1 0x40 MLOAD PUSH2 0x99 SWAP7 SWAP6 SWAP5 SWAP4 SWAP3 SWAP2 SWAP1 PUSH2 0xCB1 JUMP JUMPDEST PUSH1 0x40 MLOAD DUP1 SWAP2 SUB SWAP1 RETURN JUMPDEST PUSH2 0xAA PUSH2 0x678 JUMP JUMPDEST PUSH1 0x40 MLOAD PUSH2 0xB7 SWAP2 SWAP1 PUSH2 0xD27 JUMP JUMPDEST PUSH1 0x40 MLOAD DUP1 SWAP2 SUB SWAP1 RETURN JUMPDEST PUSH2 0xDA PUSH1 0x4 DUP1 CALLDATASIZE SUB DUP2 ADD SWAP1 PUSH2 0xD5 SWAP2 SWAP1 PUSH2 0xB74 JUMP JUMPDEST PUSH2 0x69E JUMP JUMPDEST PUSH1 0x40 MLOAD PUSH2 0xED SWAP8 SWAP7 SWAP6 SWAP5 SWAP4 SWAP3 SWAP2 SWAP1 PUSH2 0xD42 JUMP JUMPDEST PUSH1 0x40 MLOAD DUP1 SWAP2 SUB SWAP1 RETURN JUMPDEST PUSH1 0x0 DUP1 DUP6 PUSH1 0x40 MLOAD PUSH2 0x107 SWAP2 SWAP1 PUSH2 0xE09 JUMP JUMPDEST SWAP1 DUP2 MSTORE PUSH1 0x20 ADD PUSH1 0x40 MLOAD DUP1 SWAP2 SUB SWAP1 KECCAK256 PUSH1 0x0 ADD DUP1 SLOAD PUSH2 0x123 SWAP1 PUSH2 0xE4F JUMP JUMPDEST SWAP1 POP EQ PUSH2 0x165 JUMPI PUSH1 0x40 MLOAD PUSH32 0x8C379A000000000000000000000000000000000000000000000000000000000 DUP2 MSTORE PUSH1 0x4 ADD PUSH2 0x15C SWAP1 PUSH2 0xECC JUMP JUMPDEST PUSH1 0x40 MLOAD DUP1 SWAP2 SUB SWAP1 REVERT JUMPDEST PUSH1 0x40 MLOAD DUP1 PUSH1 0xE0 ADD PUSH1 0x40 MSTORE DUP1 DUP6 DUP2 MSTORE PUSH1 0x20 ADD DUP5 DUP2 MSTORE PUSH1 0x20 ADD DUP4 DUP2 MSTORE PUSH1 0x20 ADD DUP3 DUP2 MSTORE PUSH1 0x20 ADD TIMESTAMP DUP2 MSTORE PUSH1 0x20 ADD CALLER PUSH20 0xFFFFFFFFFFFFFFFFFFFFFFFFFFFFFFFFFFFFFFFF AND DUP2 MSTORE PUSH1 0x20 ADD PUSH1 0x1 ISZERO ISZERO DUP2 MSTORE POP PUSH1 0x0 DUP6 PUSH1 0x40 MLOAD PUSH2 0x1C1 SWAP2 SWAP1 PUSH2 0xE09 JUMP JUMPDEST SWAP1 DUP2 MSTORE PUSH1 0x20 ADD PUSH1 0x40 MLOAD DUP1 SWAP2 SUB SWAP1 KECCAK256 PUSH1 0x0 DUP3 ADD MLOAD DUP2 PUSH1 0x0 ADD SWAP1 DUP2 PUSH2 0x1E4 SWAP2 SWAP1 PUSH2 0x1098 JUMP JUMPDEST POP PUSH1 0x20 DUP3 ADD MLOAD DUP2 PUSH1 0x1 ADD SWAP1 DUP2 PUSH2 0x1FA SWAP2 SWAP1 PUSH2 0x1098 JUMP JUMPDEST POP PUSH1 0x40 DUP3 ADD MLOAD DUP2 PUSH1 0x2 ADD SWAP1 DUP2 PUSH2 0x210 SWAP2 SWAP1 PUSH2 0x1098 JUMP JUMPDEST POP PUSH1 0x60 DUP3 ADD MLOAD DUP2 PUSH1 0x3 ADD SWAP1 DUP2 PUSH2 0x226 SWAP2 SWAP1 PUSH2 0x1098 JUMP JUMPDEST POP PUSH1 0x80 DUP3 ADD MLOAD DUP2 PUSH1 0x4 ADD SSTORE PUSH1 0xA0 DUP3 ADD MLOAD DUP2 PUSH1 0x5 ADD PUSH1 0x0 PUSH2 0x100 EXP DUP2 SLOAD DUP2 PUSH20 0xFFFFFFFFFFFFFFFFFFFFFFFFFFFFFFFFFFFFFFFF MUL NOT AND SWAP1 DUP4 PUSH20 0xFFFFFFFFFFFFFFFFFFFFFFFFFFFFFFFFFFFFFFFF AND MUL OR SWAP1 SSTORE POP PUSH1 0xC0 DUP3 ADD MLOAD DUP2 PUSH1 0x5 ADD PUSH1 0x14 PUSH2 0x100 EXP DUP2 SLOAD DUP2 PUSH1 0xFF MUL NOT AND SWAP1 DUP4 ISZERO ISZERO MUL OR SWAP1 SSTORE POP SWAP1 POP POP DUP4 PUSH1 0x40 MLOAD PUSH2 0x2A9 SWAP2 SWAP1 PUSH2 0xE09 JUMP JUMPDEST PUSH1 0x40 MLOAD DUP1 SWAP2 SUB SWAP1 KECCAK256 PUSH32 0xA8C9A80654A8B70EFD2411A076CA8D55B1ED22D036B4E24D1BF2A2375ED9491F DUP5 DUP4 PUSH1 0x40 MLOAD PUSH2 0x2E2 SWAP3 SWAP2 SWAP1 PUSH2 0x116A JUMP JUMPDEST PUSH1 0x40 MLOAD DUP1 SWAP2 SUB SWAP1 LOG2 POP POP POP POP JUMP JUMPDEST PUSH1 0x0 PUSH1 0x60 DUP1 PUSH1 0x60 PUSH1 0x0 DUP1 PUSH1 0x0 DUP1 DUP9 PUSH1 0x40 MLOAD PUSH2 0x30B SWAP2 SWAP1 PUSH2 0xE09 JUMP JUMPDEST SWAP1 DUP2 MSTORE PUSH1 0x20 ADD PUSH1 0x40 MLOAD DUP1 SWAP2 SUB SWAP1 KECCAK256 PUSH1 0x40 MLOAD DUP1 PUSH1 0xE0 ADD PUSH1 0x40 MSTORE SWAP1 DUP2 PUSH1 0x0 DUP3 ADD DUP1 SLOAD PUSH2 0x334 SWAP1 PUSH2 0xE4F JUMP JUMPDEST DUP1 PUSH1 0x1F ADD PUSH1 0x20 DUP1 SWAP2 DIV MUL PUSH1 0x20 ADD PUSH1 0x40 MLOAD SWAP1 DUP2 ADD PUSH1 0x40 MSTORE DUP1 SWAP3 SWAP2 SWAP1 DUP2 DUP2 MSTORE PUSH1 0x20 ADD DUP3 DUP1 SLOAD PUSH2 0x360 SWAP1 PUSH2 0xE4F JUMP JUMPDEST DUP1 ISZERO PUSH2 0x3AD JUMPI DUP1 PUSH1 0x1F LT PUSH2 0x382 JUMPI PUSH2 0x100 DUP1 DUP4 SLOAD DIV MUL DUP4 MSTORE SWAP2 PUSH1 0x20 ADD SWAP2 PUSH2 0x3AD JUMP JUMPDEST DUP3 ADD SWAP2 SWAP1 PUSH1 0x0 MSTORE PUSH1 0x20 PUSH1 0x0 KECCAK256 SWAP1 JUMPDEST DUP2 SLOAD DUP2 MSTORE SWAP1 PUSH1 0x1 ADD SWAP1 PUSH1 0x20 ADD DUP1 DUP4 GT PUSH2 0x390 JUMPI DUP3 SWAP1 SUB PUSH1 0x1F AND DUP3 ADD SWAP2 JUMPDEST POP POP POP POP POP DUP2 MSTORE PUSH1 0x20 ADD PUSH1 0x1 DUP3 ADD DUP1 SLOAD PUSH2 0x3C6 SWAP1 PUSH2 0xE4F JUMP JUMPDEST DUP1 PUSH1 0x1F ADD PUSH1 0x20 DUP1 SWAP2 DIV MUL PUSH1 0x20 ADD PUSH1 0x40 MLOAD SWAP1 DUP2 ADD PUSH1 0x40 MSTORE DUP1 SWAP3 SWAP2 SWAP1 DUP2 DUP2 MSTORE PUSH1 0x20 ADD DUP3 DUP1 SLOAD PUSH2 0x3F2 SWAP1 PUSH2 0xE4F JUMP JUMPDEST DUP1 ISZERO PUSH2 0x43F JUMPI DUP1 PUSH1 0x1F LT PUSH2 0x414 JUMPI PUSH2 0x100 DUP1 DUP4 SLOAD DIV MUL DUP4 MSTORE SWAP2 PUSH1 0x20 ADD SWAP2 PUSH2 0x43F JUMP JUMPDEST DUP3 ADD SWAP2 SWAP1 PUSH1 0x0 MSTORE PUSH1 0x20 PUSH1 0x0 KECCAK256 SWAP1 JUMPDEST DUP2 SLOAD DUP2 MSTORE SWAP1 PUSH1 0x1 ADD SWAP1 PUSH1 0x20 ADD DUP1 DUP4 GT PUSH2 0x422 JUMPI DUP3 SWAP1 SUB PUSH1 0x1F AND DUP3 ADD SWAP2 JUMPDEST POP POP POP POP POP DUP2 MSTORE PUSH1 0x20 ADD PUSH1 0x2 DUP3 ADD DUP1 SLOAD PUSH2 0x458 SWAP1 PUSH2 0xE4F JUMP JUMPDEST DUP1 PUSH1 0x1F ADD PUSH1 0x20 DUP1 SWAP2 DIV MUL PUSH1 0x20 ADD PUSH1 0x40 MLOAD SWAP1 DUP2 ADD PUSH1 0x40 MSTORE DUP1 SWAP3 SWAP2 SWAP1 DUP2 DUP2 MSTORE PUSH1 0x20 ADD DUP3 DUP1 SLOAD PUSH2 0x484 SWAP1 PUSH2 0xE4F JUMP JUMPDEST DUP1 ISZERO PUSH2 0x4D1 JUMPI DUP1 PUSH1 0x1F LT PUSH2 0x4A6 JUMPI PUSH2 0x100 DUP1 DUP4 SLOAD DIV MUL DUP4 MSTORE SWAP2 PUSH1 0x20 ADD SWAP2 PUSH2 0x4D1 JUMP JUMPDEST DUP3 ADD SWAP2 SWAP1 PUSH1 0x0 MSTORE PUSH1 0x20 PUSH1 0x0 KECCAK256 SWAP1 JUMPDEST DUP2 SLOAD DUP2 MSTORE SWAP1 PUSH1 0x1 ADD SWAP1 PUSH1 0x20 ADD DUP1 DUP4 GT PUSH2 0x4B4 JUMPI DUP3 SWAP1 SUB PUSH1 0x1F AND DUP3 ADD SWAP2 JUMPDEST POP POP POP POP POP DUP2 MSTORE PUSH1 0x20 ADD PUSH1 0x3 DUP3 ADD DUP1 SLOAD PUSH2 0x4EA SWAP1 PUSH2 0xE4F JUMP JUMPDEST DUP1 PUSH1 0x1F ADD PUSH1 0x20 DUP1 SWAP2 DIV MUL PUSH1 0x20 ADD PUSH1 0x40 MLOAD SWAP1 DUP2 ADD PUSH1 0x40 MSTORE DUP1 SWAP3 SWAP2 SWAP1 DUP2 DUP2 MSTORE PUSH1 0x20 ADD DUP3 DUP1 SLOAD PUSH2 0x516 SWAP1 PUSH2 0xE4F JUMP JUMPDEST DUP1 ISZERO PUSH2 0x563 JUMPI DUP1 PUSH1 0x1F LT PUSH2 0x538 JUMPI PUSH2 0x100 DUP1 DUP4 SLOAD DIV MUL DUP4 MSTORE SWAP2 PUSH1 0x20 ADD SWAP2 PUSH2 0x563 JUMP JUMPDEST DUP3 ADD SWAP2 SWAP1 PUSH1 0x0 MSTORE PUSH1 0x20 PUSH1 0x0 KECCAK256 SWAP1 JUMPDEST DUP2 SLOAD DUP2 MSTORE SWAP1 PUSH1 0x1 ADD SWAP1 PUSH1 0x20 ADD DUP1 DUP4 GT PUSH2 0x546 JUMPI DUP3 SWAP1 SUB PUSH1 0x1F AND DUP3 ADD SWAP2 JUMPDEST POP POP POP POP POP DUP2 MSTORE PUSH1 0x20 ADD PUSH1 0x4 DUP3 ADD SLOAD DUP2 MSTORE PUSH1 0x20 ADD PUSH1 0x5 DUP3 ADD PUSH1 0x0 SWAP1 SLOAD SWAP1 PUSH2 0x100 EXP SWAP1 DIV PUSH20 0xFFFFFFFFFFFFFFFFFFFFFFFFFFFFFFFFFFFFFFFF AND PUSH20 0xFFFFFFFFFFFFFFFFFFFFFFFFFFFFFFFFFFFFFFFF AND PUSH20 0xFFFFFFFFFFFFFFFFFFFFFFFFFFFFFFFFFFFFFFFF AND DUP2 MSTORE PUSH1 0x20 ADD PUSH1 0x5 DUP3 ADD PUSH1 0x14 SWAP1 SLOAD SWAP1 PUSH2 0x100 EXP SWAP1 DIV PUSH1 0xFF AND ISZERO ISZERO ISZERO ISZERO DUP2 MSTORE POP POP SWAP1 POP PUSH1 0x0 DUP2 PUSH1 0x0 ADD MLOAD MLOAD SUB PUSH2 0x643 JUMPI PUSH1 0x0 DUP1 PUSH1 0x0 PUSH1 0x40 MLOAD DUP1 PUSH1 0x20 ADD PUSH1 0x40 MSTORE DUP1 PUSH1 0x0 DUP2 MSTORE POP SWAP2 SWAP1 PUSH1 0x40 MLOAD DUP1 PUSH1 0x20 ADD PUSH1 0x40 MSTORE DUP1 PUSH1 0x0 DUP2 MSTORE POP SWAP2 SWAP1 PUSH1 0x40 MLOAD DUP1 PUSH1 0x20 ADD PUSH1 0x40 MSTORE DUP1 PUSH1 0x0 DUP2 MSTORE POP SWAP2 SWAP1 SWAP7 POP SWAP7 POP SWAP7 POP SWAP7 POP SWAP7 POP SWAP7 POP POP PUSH2 0x66F JUMP JUMPDEST DUP1 PUSH1 0xC0 ADD MLOAD DUP2 PUSH1 0x20 ADD MLOAD DUP3 PUSH1 0x40 ADD MLOAD DUP4 PUSH1 0x60 ADD MLOAD DUP5 PUSH1 0x80 ADD MLOAD DUP6 PUSH1 0xA0 ADD MLOAD SWAP7 POP SWAP7 POP SWAP7 POP SWAP7 POP SWAP7 POP SWAP7 POP POP JUMPDEST SWAP2 SWAP4 SWAP6 POP SWAP2 SWAP4 SWAP6 JUMP JUMPDEST PUSH1 0x1 PUSH1 0x0 SWAP1 SLOAD SWAP1 PUSH2 0x100 EXP SWAP1 DIV PUSH20 0xFFFFFFFFFFFFFFFFFFFFFFFFFFFFFFFFFFFFFFFF AND DUP2 JUMP JUMPDEST PUSH1 0x0 DUP2 DUP1 MLOAD PUSH1 0x20 DUP2 ADD DUP3 ADD DUP1 MLOAD DUP5 DUP3 MSTORE PUSH1 0x20 DUP4 ADD PUSH1 0x20 DUP6 ADD KECCAK256 DUP2 DUP4 MSTORE DUP1 SWAP6 POP POP POP POP POP POP PUSH1 0x0 SWAP2 POP SWAP1 POP DUP1 PUSH1 0x0 ADD DUP1 SLOAD PUSH2 0x6D7 SWAP1 PUSH2 0xE4F JUMP JUMPDEST DUP1 PUSH1 0x1F ADD PUSH1 0x20 DUP1 SWAP2 DIV MUL PUSH1 0x20 ADD PUSH1 0x40 MLOAD SWAP1 DUP2 ADD PUSH1 0x40 MSTORE DUP1 SWAP3 SWAP2 SWAP1 DUP2 DUP2 MSTORE PUSH1 0x20 ADD DUP3 DUP1 SLOAD PUSH2 0x703 SWAP1 PUSH2 0xE4F JUMP JUMPDEST DUP1 ISZERO PUSH2 0x750 JUMPI DUP1 PUSH1 0x1F LT PUSH2 0x725 JUMPI PUSH2 0x100 DUP1 DUP4 SLOAD DIV MUL DUP4 MSTORE SWAP2 PUSH1 0x20 ADD SWAP2 PUSH2 0x750 JUMP JUMPDEST DUP3 ADD SWAP2 SWAP1 PUSH1 0x0 MSTORE PUSH1 0x20 PUSH1 0x0 KECCAK256 SWAP1 JUMPDEST DUP2 SLOAD DUP2 MSTORE SWAP1 PUSH1 0x1 ADD SWAP1 PUSH1 0x20 ADD DUP1 DUP4 GT PUSH2 0x733 JUMPI DUP3 SWAP1 SUB PUSH1 0x1F AND DUP3 ADD SWAP2 JUMPDEST POP POP POP POP POP SWAP1 DUP1 PUSH1 0x1 ADD DUP1 SLOAD PUSH2 0x765 SWAP1 PUSH2 0xE4F JUMP JUMPDEST DUP1 PUSH1 0x1F ADD PUSH1 0x20 DUP1 SWAP2 DIV MUL PUSH1 0x20 ADD PUSH1 0x40 MLOAD SWAP1 DUP2 ADD PUSH1 0x40 MSTORE DUP1 SWAP3 SWAP2 SWAP1 DUP2 DUP2 MSTORE PUSH1 0x20 ADD DUP3 DUP1 SLOAD PUSH2 0x791 SWAP1 PUSH2 0xE4F JUMP JUMPDEST DUP1 ISZERO PUSH2 0x7DE JUMPI DUP1 PUSH1 0x1F LT PUSH2 0x7B3 JUMPI PUSH2 0x100 DUP1 DUP4 SLOAD DIV MUL DUP4 MSTORE SWAP2 PUSH1 0x20 ADD SWAP2 PUSH2 0x7DE JUMP JUMPDEST DUP3 ADD SWAP2 SWAP1 PUSH1 0x0 MSTORE PUSH1 0x20 PUSH1 0x0 KECCAK256 SWAP1 JUMPDEST DUP2 SLOAD DUP2 MSTORE SWAP1 PUSH1 0x1 ADD SWAP1 PUSH1 0x20 ADD DUP1 DUP4 GT PUSH2 0x7C1 JUMPI DUP3 SWAP1 SUB PUSH1 0x1F AND DUP3 ADD SWAP2 JUMPDEST POP POP POP POP POP SWAP1 DUP1 PUSH1 0x2 ADD DUP1 SLOAD PUSH2 0x7F3 SWAP1 PUSH2 0xE4F JUMP JUMPDEST DUP1 PUSH1 0x1F ADD PUSH1 0x20 DUP1 SWAP2 DIV MUL PUSH1 0x20 ADD PUSH1 0x40 MLOAD SWAP1 DUP2 ADD PUSH1 0x40 MSTORE DUP1 SWAP3 SWAP2 SWAP1 DUP2 DUP2 MSTORE PUSH1 0x20 ADD DUP3 DUP1 SLOAD PUSH2 0x81F SWAP1 PUSH2 0xE4F JUMP JUMPDEST DUP1 ISZERO PUSH2 0x86C JUMPI DUP1 PUSH1 0x1F LT PUSH2 0x841 JUMPI PUSH2 0x100 DUP1 DUP4 SLOAD DIV MUL DUP4 MSTORE SWAP2 PUSH1 0x20 ADD SWAP2 PUSH2 0x86C JUMP JUMPDEST DUP3 ADD SWAP2 SWAP1 PUSH1 0x0 MSTORE PUSH1 0x20 PUSH1 0x0 KECCAK256 SWAP1 JUMPDEST DUP2 SLOAD DUP2 MSTORE SWAP1 PUSH1 0x1 ADD SWAP1 PUSH1 0x20 ADD DUP1 DUP4 GT PUSH2 0x84F JUMPI DUP3 SWAP1 SUB PUSH1 0x1F AND DUP3 ADD SWAP2 JUMPDEST POP POP POP POP POP SWAP1 DUP1 PUSH1 0x3 ADD DUP1 SLOAD PUSH2 0x881 SWAP1 PUSH2 0xE4F JUMP JUMPDEST DUP1 PUSH1 0x1F ADD PUSH1 0x20 DUP1 SWAP2 DIV MUL PUSH1 0x20 ADD PUSH1 0x40 MLOAD SWAP1 DUP2 ADD PUSH1 0x40 MSTORE DUP1 SWAP3 SWAP2 SWAP1 DUP2 DUP2 MSTORE PUSH1 0x20 ADD DUP3 DUP1 SLOAD PUSH2 0x8AD SWAP1 PUSH2 0xE4F JUMP JUMPDEST DUP1 ISZERO PUSH2 0x8FA JUMPI DUP1 PUSH1 0x1F LT PUSH2 0x8CF JUMPI PUSH2 0x100 DUP1 DUP4 SLOAD DIV MUL DUP4 MSTORE SWAP2 PUSH1 0x20 ADD SWAP2 PUSH2 0x8FA JUMP JUMPDEST DUP3 ADD SWAP2 SWAP1 PUSH1 0x0 MSTORE PUSH1 0x20 PUSH1 0x0 KECCAK256 SWAP1 JUMPDEST DUP2 SLOAD DUP2 MSTORE SWAP1 PUSH1 0x1 ADD SWAP1 PUSH1 0x20 ADD DUP1 DUP4 GT PUSH2 0x8DD JUMPI DUP3 SWAP1 SUB PUSH1 0x1F AND DUP3 ADD SWAP2 JUMPDEST POP POP POP POP POP SWAP1 DUP1 PUSH1 0x4 ADD SLOAD SWAP1 DUP1 PUSH1 0x5 ADD PUSH1 0x0 SWAP1 SLOAD SWAP1 PUSH2 0x100 EXP SWAP1 DIV PUSH20 0xFFFFFFFFFFFFFFFFFFFFFFFFFFFFFFFFFFFFFFFF AND SWAP1 DUP1 PUSH1 0x5 ADD PUSH1 0x14 SWAP1 SLOAD SWAP1 PUSH2 0x100 EXP SWAP1 DIV PUSH1 0xFF AND SWAP1 POP DUP8 JUMP JUMPDEST PUSH1 0x0 PUSH1 0x40 MLOAD SWAP1 POP SWAP1 JUMP JUMPDEST PUSH1 0x0 DUP1 REVERT JUMPDEST PUSH1 0x0 DUP1 REVERT JUMPDEST PUSH1 0x0 DUP1 REVERT JUMPDEST PUSH1 0x0 DUP1 REVERT JUMPDEST PUSH1 0x0 PUSH1 0x1F NOT PUSH1 0x1F DUP4 ADD AND SWAP1 POP SWAP2 SWAP1 POP JUMP JUMPDEST PUSH32 0x4E487B7100000000000000000000000000000000000000000000000000000000 PUSH1 0x0 MSTORE PUSH1 0x41 PUSH1 0x4 MSTORE PUSH1 0x24 PUSH1 0x0 REVERT JUMPDEST PUSH2 0x9AA DUP3 PUSH2 0x961 JUMP JUMPDEST DUP2 ADD DUP2 DUP2 LT PUSH8 0xFFFFFFFFFFFFFFFF DUP3 GT OR ISZERO PUSH2 0x9C9 JUMPI PUSH2 0x9C8 PUSH2 0x972 JUMP JUMPDEST JUMPDEST DUP1 PUSH1 0x40 MSTORE POP POP POP JUMP JUMPDEST PUSH1 0x0 PUSH2 0x9DC PUSH2 0x943 JUMP JUMPDEST SWAP1 POP PUSH2 0x9E8 DUP3 DUP3 PUSH2 0x9A1 JUMP JUMPDEST SWAP2 SWAP1 POP JUMP JUMPDEST PUSH1 0x0 PUSH8 0xFFFFFFFFFFFFFFFF DUP3 GT ISZERO PUSH2 0xA08 JUMPI PUSH2 0xA07 PUSH2 0x972 JUMP JUMPDEST JUMPDEST PUSH2 0xA11 DUP3 PUSH2 0x961 JUMP JUMPDEST SWAP1 POP PUSH1 0x20 DUP2 ADD SWAP1 POP SWAP2 SWAP1 POP JUMP JUMPDEST DUP3 DUP2 DUP4 CALLDATACOPY PUSH1 0x0 DUP4 DUP4 ADD MSTORE POP POP POP JUMP JUMPDEST PUSH1 0x0 PUSH2 0xA40 PUSH2 0xA3B DUP5 PUSH2 0x9ED JUMP JUMPDEST PUSH2 0x9D2 JUMP JUMPDEST SWAP1 POP DUP3 DUP2 MSTORE PUSH1 0x20 DUP2 ADD DUP5 DUP5 DUP5 ADD GT ISZERO PUSH2 0xA5C JUMPI PUSH2 0xA5B PUSH2 0x95C JUMP JUMPDEST JUMPDEST PUSH2 0xA67 DUP5 DUP3 DUP6 PUSH2 0xA1E JUMP JUMPDEST POP SWAP4 SWAP3 POP POP POP JUMP JUMPDEST PUSH1 0x0 DUP3 PUSH1 0x1F DUP4 ADD SLT PUSH2 0xA84 JUMPI PUSH2 0xA83 PUSH2 0x957 JUMP JUMPDEST JUMPDEST DUP2 CALLDATALOAD PUSH2 0xA94 DUP5 DUP3 PUSH1 0x20 DUP7 ADD PUSH2 0xA2D JUMP JUMPDEST SWAP2 POP POP SWAP3 SWAP2 POP POP JUMP JUMPDEST PUSH1 0x0 DUP1 PUSH1 0x0 DUP1 PUSH1 0x80 DUP6 DUP8 SUB SLT ISZERO PUSH2 0xAB7 JUMPI PUSH2 0xAB6 PUSH2 0x94D JUMP JUMPDEST JUMPDEST PUSH1 0x0 DUP6 ADD CALLDATALOAD PUSH8 0xFFFFFFFFFFFFFFFF DUP2 GT ISZERO PUSH2 0xAD5 JUMPI PUSH2 0xAD4 PUSH2 0x952 JUMP JUMPDEST JUMPDEST PUSH2 0xAE1 DUP8 DUP3 DUP9 ADD PUSH2 0xA6F JUMP JUMPDEST SWAP5 POP POP PUSH1 0x20 DUP6 ADD CALLDATALOAD PUSH8 0xFFFFFFFFFFFFFFFF DUP2 GT ISZERO PUSH2 0xB02 JUMPI PUSH2 0xB01 PUSH2 0x952 JUMP JUMPDEST JUMPDEST PUSH2 0xB0E DUP8 DUP3 DUP9 ADD PUSH2 0xA6F JUMP JUMPDEST SWAP4 POP POP PUSH1 0x40 DUP6 ADD CALLDATALOAD PUSH8 0xFFFFFFFFFFFFFFFF DUP2 GT ISZERO PUSH2 0xB2F JUMPI PUSH2 0xB2E PUSH2 0x952 JUMP JUMPDEST JUMPDEST PUSH2 0xB3B DUP8 DUP3 DUP9 ADD PUSH2 0xA6F JUMP JUMPDEST SWAP3 POP POP PUSH1 0x60 DUP6 ADD CALLDATALOAD PUSH8 0xFFFFFFFFFFFFFFFF DUP2 GT ISZERO PUSH2 0xB5C JUMPI PUSH2 0xB5B PUSH2 0x952 JUMP JUMPDEST JUMPDEST PUSH2 0xB68 DUP8 DUP3 DUP9 ADD PUSH2 0xA6F JUMP JUMPDEST SWAP2 POP POP SWAP3 SWAP6 SWAP2 SWAP5 POP SWAP3 POP JUMP JUMPDEST PUSH1 0x0 PUSH1 0x20 DUP3 DUP5 SUB SLT ISZERO PUSH2 0xB8A JUMPI PUSH2 0xB89 PUSH2 0x94D JUMP JUMPDEST JUMPDEST PUSH1 0x0 DUP3 ADD CALLDATALOAD PUSH8 0xFFFFFFFFFFFFFFFF DUP2 GT ISZERO PUSH2 0xBA8 JUMPI PUSH2 0xBA7 PUSH2 0x952 JUMP JUMPDEST JUMPDEST PUSH2 0xBB4 DUP5 DUP3 DUP6 ADD PUSH2 0xA6F JUMP JUMPDEST SWAP2 POP POP SWAP3 SWAP2 POP POP JUMP JUMPDEST PUSH1 0x0 DUP2 ISZERO ISZERO SWAP1 POP SWAP2 SWAP1 POP JUMP JUMPDEST PUSH2 0xBD2 DUP2 PUSH2 0xBBD JUMP JUMPDEST DUP3 MSTORE POP POP JUMP JUMPDEST PUSH1 0x0 DUP2 MLOAD SWAP1 POP SWAP2 SWAP1 POP JUMP JUMPDEST PUSH1 0x0 DUP3 DUP3 MSTORE PUSH1 0x20 DUP3 ADD SWAP1 POP SWAP3 SWAP2 POP POP JUMP JUMPDEST PUSH1 0x0 JUMPDEST DUP4 DUP2 LT ISZERO PUSH2 0xC12 JUMPI DUP1 DUP3 ADD MLOAD DUP2 DUP5 ADD MSTORE PUSH1 0x20 DUP2 ADD SWAP1 POP PUSH2 0xBF7 JUMP JUMPDEST PUSH1 0x0 DUP5 DUP5 ADD MSTORE POP POP POP POP JUMP JUMPDEST PUSH1 0x0 PUSH2 0xC29 DUP3 PUSH2 0xBD8 JUMP JUMPDEST PUSH2 0xC33 DUP2 DUP6 PUSH2 0xBE3 JUMP JUMPDEST SWAP4 POP PUSH2 0xC43 DUP2 DUP6 PUSH1 0x20 DUP7 ADD PUSH2 0xBF4 JUMP JUMPDEST PUSH2 0xC4C DUP2 PUSH2 0x961 JUMP JUMPDEST DUP5 ADD SWAP2 POP POP SWAP3 SWAP2 POP POP JUMP JUMPDEST PUSH1 0x0 DUP2 SWAP1 POP SWAP2 SWAP1 POP JUMP JUMPDEST PUSH2 0xC6A DUP2 PUSH2 0xC57 JUMP JUMPDEST DUP3 MSTORE POP POP JUMP JUMPDEST PUSH1 0x0 PUSH20 0xFFFFFFFFFFFFFFFFFFFFFFFFFFFFFFFFFFFFFFFF DUP3 AND SWAP1 POP SWAP2 SWAP1 POP JUMP JUMPDEST PUSH1 0x0 PUSH2 0xC9B DUP3 PUSH2 0xC70 JUMP JUMPDEST SWAP1 POP SWAP2 SWAP1 POP JUMP JUMPDEST PUSH2 0xCAB DUP2 PUSH2 0xC90 JUMP JUMPDEST DUP3 MSTORE POP POP JUMP JUMPDEST PUSH1 0x0 PUSH1 0xC0 DUP3 ADD SWAP1 POP PUSH2 0xCC6 PUSH1 0x0 DUP4 ADD DUP10 PUSH2 0xBC9 JUMP JUMPDEST DUP2 DUP2 SUB PUSH1 0x20 DUP4 ADD MSTORE PUSH2 0xCD8 DUP2 DUP9 PUSH2 0xC1E JUMP JUMPDEST SWAP1 POP DUP2 DUP2 SUB PUSH1 0x40 DUP4 ADD MSTORE PUSH2 0xCEC DUP2 DUP8 PUSH2 0xC1E JUMP JUMPDEST SWAP1 POP DUP2 DUP2 SUB PUSH1 0x60 DUP4 ADD MSTORE PUSH2 0xD00 DUP2 DUP7 PUSH2 0xC1E JUMP JUMPDEST SWAP1 POP PUSH2 0xD0F PUSH1 0x80 DUP4 ADD DUP6 PUSH2 0xC61 JUMP JUMPDEST PUSH2 0xD1C PUSH1 0xA0 DUP4 ADD DUP5 PUSH2 0xCA2 JUMP JUMPDEST SWAP8 SWAP7 POP POP POP POP POP POP POP JUMP JUMPDEST PUSH1 0x0 PUSH1 0x20 DUP3 ADD SWAP1 POP PUSH2 0xD3C PUSH1 0x0 DUP4 ADD DUP5 PUSH2 0xCA2 JUMP JUMPDEST SWAP3 SWAP2 POP POP JUMP JUMPDEST PUSH1 0x0 PUSH1 0xE0 DUP3 ADD SWAP1 POP DUP2 DUP2 SUB PUSH1 0x0 DUP4 ADD MSTORE PUSH2 0xD5C DUP2 DUP11 PUSH2 0xC1E JUMP JUMPDEST SWAP1 POP DUP2 DUP2 SUB PUSH1 0x20 DUP4 ADD MSTORE PUSH2 0xD70 DUP2 DUP10 PUSH2 0xC1E JUMP JUMPDEST SWAP1 POP DUP2 DUP2 SUB PUSH1 0x40 DUP4 ADD MSTORE PUSH2 0xD84 DUP2 DUP9 PUSH2 0xC1E JUMP JUMPDEST SWAP1 POP DUP2 DUP2 SUB PUSH1 0x60 DUP4 ADD MSTORE PUSH2 0xD98 DUP2 DUP8 PUSH2 0xC1E JUMP JUMPDEST SWAP1 POP PUSH2 0xDA7 PUSH1 0x80 DUP4 ADD DUP7 PUSH2 0xC61 JUMP JUMPDEST PUSH2 0xDB4 PUSH1 0xA0 DUP4 ADD DUP6 PUSH2 0xCA2 JUMP JUMPDEST PUSH2 0xDC1 PUSH1 0xC0 DUP4 ADD DUP5 PUSH2 0xBC9 JUMP JUMPDEST SWAP9 SWAP8 POP POP POP POP POP POP POP POP JUMP JUMPDEST PUSH1 0x0 DUP2 SWAP1 POP SWAP3 SWAP2 POP POP JUMP JUMPDEST PUSH1 0x0 PUSH2 0xDE3 DUP3 PUSH2 0xBD8 JUMP JUMPDEST PUSH2 0xDED DUP2 DUP6 PUSH2 0xDCD JUMP JUMPDEST SWAP4 POP PUSH2 0xDFD DUP2 DUP6 PUSH1 0x20 DUP7 ADD PUSH2 0xBF4 JUMP JUMPDEST DUP1 DUP5 ADD SWAP2 POP POP SWAP3 SWAP2 POP POP JUMP JUMPDEST PUSH1 0x0 PUSH2 0xE15 DUP3 DUP5 PUSH2 0xDD8 JUMP JUMPDEST SWAP2 POP DUP2 SWAP1 POP SWAP3 SWAP2 POP POP JUMP JUMPDEST PUSH32 0x4E487B7100000000000000000000000000000000000000000000000000000000 PUSH1 0x0 MSTORE PUSH1 0x22 PUSH1 0x4 MSTORE PUSH1 0x24 PUSH1 0x0 REVERT JUMPDEST PUSH1 0x0 PUSH1 0x2 DUP3 DIV SWAP1 POP PUSH1 0x1 DUP3 AND DUP1 PUSH2 0xE67 JUMPI PUSH1 0x7F DUP3 AND SWAP2 POP JUMPDEST PUSH1 0x20 DUP3 LT DUP2 SUB PUSH2 0xE7A JUMPI PUSH2 0xE79 PUSH2 0xE20 JUMP JUMPDEST JUMPDEST POP SWAP2 SWAP1 POP JUMP JUMPDEST PUSH32 0x436572746966696361746520616C726561647920726567697374657265640000 PUSH1 0x0 DUP3 ADD MSTORE POP JUMP JUMPDEST PUSH1 0x0 PUSH2 0xEB6 PUSH1 0x1E DUP4 PUSH2 0xBE3 JUMP JUMPDEST SWAP2 POP PUSH2 0xEC1 DUP3 PUSH2 0xE80 JUMP JUMPDEST PUSH1 0x20 DUP3 ADD SWAP1 POP SWAP2 SWAP1 POP JUMP JUMPDEST PUSH1 0x0 PUSH1 0x20 DUP3 ADD SWAP1 POP DUP2 DUP2 SUB PUSH1 0x0 DUP4 ADD MSTORE PUSH2 0xEE5 DUP2 PUSH2 0xEA9 JUMP JUMPDEST SWAP1 POP SWAP2 SWAP1 POP JUMP JUMPDEST PUSH1 0x0 DUP2 SWAP1 POP DUP2 PUSH1 0x0 MSTORE PUSH1 0x20 PUSH1 0x0 KECCAK256 SWAP1 POP SWAP2 SWAP1 POP JUMP JUMPDEST PUSH1 0x0 PUSH1 0x20 PUSH1 0x1F DUP4 ADD DIV SWAP1 POP SWAP2 SWAP1 POP JUMP JUMPDEST PUSH1 0x0 DUP3 DUP3 SHL SWAP1 POP SWAP3 SWAP2 POP POP JUMP JUMPDEST PUSH1 0x0 PUSH1 0x8 DUP4 MUL PUSH2 0xF4E PUSH32 0xFFFFFFFFFFFFFFFFFFFFFFFFFFFFFFFFFFFFFFFFFFFFFFFFFFFFFFFFFFFFFFFF DUP3 PUSH2 0xF11 JUMP JUMPDEST PUSH2 0xF58 DUP7 DUP4 PUSH2 0xF11 JUMP JUMPDEST SWAP6 POP DUP1 NOT DUP5 AND SWAP4 POP DUP1 DUP7 AND DUP5 OR SWAP3 POP POP POP SWAP4 SWAP3 POP POP POP JUMP JUMPDEST PUSH1 0x0 DUP2 SWAP1 POP SWAP2 SWAP1 POP JUMP JUMPDEST PUSH1 0x0 PUSH2 0xF95 PUSH2 0xF90 PUSH2 0xF8B DUP5 PUSH2 0xC57 JUMP JUMPDEST PUSH2 0xF70 JUMP JUMPDEST PUSH2 0xC57 JUMP JUMPDEST SWAP1 POP SWAP2 SWAP1 POP JUMP JUMPDEST PUSH1 0x0 DUP2 SWAP1 POP SWAP2 SWAP1 POP JUMP JUMPDEST PUSH2 0xFAF DUP4 PUSH2 0xF7A JUMP JUMPDEST PUSH2 0xFC3 PUSH2 0xFBB DUP3 PUSH2 0xF9C JUMP JUMPDEST DUP5 DUP5 SLOAD PUSH2 0xF1E JUMP JUMPDEST DUP3 SSTORE POP POP POP POP JUMP JUMPDEST PUSH1 0x0 SWAP1 JUMP JUMPDEST PUSH2 0xFD8 PUSH2 0xFCB JUMP JUMPDEST PUSH2 0xFE3 DUP2 DUP5 DUP5 PUSH2 0xFA6 JUMP JUMPDEST POP POP POP JUMP JUMPDEST JUMPDEST DUP2 DUP2 LT ISZERO PUSH2 0x1007 JUMPI PUSH2 0xFFC PUSH1 0x0 DUP3 PUSH2 0xFD0 JUMP JUMPDEST PUSH1 0x1 DUP2 ADD SWAP1 POP PUSH2 0xFE9 JUMP JUMPDEST POP POP JUMP JUMPDEST PUSH1 0x1F DUP3 GT ISZERO PUSH2 0x104C JUMPI PUSH2 0x101D DUP2 PUSH2 0xEEC JUMP JUMPDEST PUSH2 0x1026 DUP5 PUSH2 0xF01 JUMP JUMPDEST DUP2 ADD PUSH1 0x20 DUP6 LT ISZERO PUSH2 0x1035 JUMPI DUP2 SWAP1 POP JUMPDEST PUSH2 0x1049 PUSH2 0x1041 DUP6 PUSH2 0xF01 JUMP JUMPDEST DUP4 ADD DUP3 PUSH2 0xFE8 JUMP JUMPDEST POP POP JUMPDEST POP POP POP JUMP JUMPDEST PUSH1 0x0 DUP3 DUP3 SHR SWAP1 POP SWAP3 SWAP2 POP POP JUMP JUMPDEST PUSH1 0x0 PUSH2 0x106F PUSH1 0x0 NOT DUP5 PUSH1 0x8 MUL PUSH2 0x1051 JUMP JUMPDEST NOT DUP1 DUP4 AND SWAP2 POP POP SWAP3 SWAP2 POP POP JUMP JUMPDEST PUSH1 0x0 PUSH2 0x1088 DUP4 DUP4 PUSH2 0x105E JUMP JUMPDEST SWAP2 POP DUP3 PUSH1 0x2 MUL DUP3 OR SWAP1 POP SWAP3 SWAP2 POP POP JUMP JUMPDEST PUSH2 0x10A1 DUP3 PUSH2 0xBD8 JUMP JUMPDEST PUSH8 0xFFFFFFFFFFFFFFFF DUP2 GT ISZERO PUSH2 0x10BA JUMPI PUSH2 0x10B9 PUSH2 0x972 JUMP JUMPDEST JUMPDEST PUSH2 0x10C4 DUP3 SLOAD PUSH2 0xE4F JUMP JUMPDEST PUSH2 0x10CF DUP3 DUP3 DUP6 PUSH2 0x100B JUMP JUMPDEST PUSH1 0x0 PUSH1 0x20 SWAP1 POP PUSH1 0x1F DUP4 GT PUSH1 0x1 DUP2 EQ PUSH2 0x1102 JUMPI PUSH1 0x0 DUP5 ISZERO PUSH2 0x10F0 JUMPI DUP3 DUP8 ADD MLOAD SWAP1 POP JUMPDEST PUSH2 0x10FA DUP6 DUP3 PUSH2 0x107C JUMP JUMPDEST DUP7 SSTORE POP PUSH2 0x1162 JUMP JUMPDEST PUSH1 0x1F NOT DUP5 AND PUSH2 0x1110 DUP7 PUSH2 0xEEC JUMP JUMPDEST PUSH1 0x0 JUMPDEST DUP3 DUP2 LT ISZERO PUSH2 0x1138 JUMPI DUP5 DUP10 ADD MLOAD DUP3 SSTORE PUSH1 0x1 DUP3 ADD SWAP2 POP PUSH1 0x20 DUP6 ADD SWAP5 POP PUSH1 0x20 DUP2 ADD SWAP1 POP PUSH2 0x1113 JUMP JUMPDEST DUP7 DUP4 LT ISZERO PUSH2 0x1155 JUMPI DUP5 DUP10 ADD MLOAD PUSH2 0x1151 PUSH1 0x1F DUP10 AND DUP3 PUSH2 0x105E JUMP JUMPDEST DUP4 SSTORE POP JUMPDEST PUSH1 0x1 PUSH1 0x2 DUP9 MUL ADD DUP9 SSTORE POP POP POP JUMPDEST POP POP POP POP POP POP JUMP JUMPDEST PUSH1 0x0 PUSH1 0x40 DUP3 ADD SWAP1 POP DUP2 DUP2 SUB PUSH1 0x0 DUP4 ADD MSTORE PUSH2 0x1184 DUP2 DUP6 PUSH2 0xC1E JUMP JUMPDEST SWAP1 POP DUP2 DUP2 SUB PUSH1 0x20 DUP4 ADD MSTORE PUSH2 0x1198 DUP2 DUP5 PUSH2 0xC1E JUMP JUMPDEST SWAP1 POP SWAP4 SWAP3 POP POP POP JUMP INVALID LOG2 PUSH5 0x6970667358 0x22 SLT KECCAK256 PUSH10 0xED603766986F9F11802F 0xDB 0xBF MULMOD SMOD 0xAC 0xEE 0xBA 0xEC 0xB0 PUSH11 0xAF6C8C4506BAA3CD351B8B PUSH5 0x736F6C6343 STOP ADDMOD SGT STOP CALLER "},"methodIdentifiers":{"certificates(string)":"8f2b91ea","owner()":"8da5cb5b","registerCertificate(string,string,string,string)":"48f6d2e2","verifyCertificate(string)":"8b23d875"}}}}}