{
  "_format": "hh-sol-artifact-1",
  "contractName": "CertificateRegistry",
  "sourceName": "contracts/CertificateRegistry.sol",
  "abi": [
    {
      "inputs": [],
      "stateMutability": "nonpayable",
      "type": "constructor"
    },
    {
      "anonymous": false,
      "inputs": [
        {
          "indexed": true,
          "internalType": "string",
          "name": "fileHash",
          "type": "string"
        },
        {
          "indexed": false,
          "internalType": "string",
          "name": "studentName",
          "type": "string"
        },
        {
          "indexed": false,
          "internalType": "string",
          "name": "institute",
          "type": "string"
        }
      ],
      "name": "CertificateRegistered",
      "type": "event"
    },
    {
      "inputs": [
        {
          "internalType": "string",
          "name": "",
          "type": "string"
        }
      ],
      "name": "certificates",
      "outputs": [
        {
          "internalType": "string",
          "name": "fileHash",
          "type": "string"
        },
        {
          "internalType": "string",
          "name": "studentName",
          "type": "string"
        },
        {
          "internalType": "string",
          "name": "course",
          "type": "string"
        },
        {
          "internalType": "string",
          "name": "institute",
          "type": "string"
        },
        {
          "internalType": "uint256",
          "name": "timestamp",
          "type": "uint256"
        },
        {
          "internalType": "address",
          "name": "issuer",
          "type": "address"
        },
        {
          "internalType": "bool",
          "name": "isValid",
          "type": "bool"
        }
      ],
      "stateMutability": "view",
      "type": "function"
    },
    {
      "inputs": [],
      "name": "owner",
      "outputs": [
        {
          "internalType": "address",
          "name": "",
          "type": "address"
        }
      ],
      "stateMutability": "view",
      "type": "function"
    },
    {
      "inputs": [
        {
          "internalType": "string",
          "name": "_fileHash",
          "type": "string"
        },
        {
          "internalType": "string",
          "name": "_studentName",
          "type": "string"
        },
        {
          "internalType": "string",
          "name": "_course",
          "type": "string"
        },
        {
          "internalType": "string",
          "name": "_institute",
          "type": "string"
        }
      ],
      "name": "registerCertificate",
      "outputs": [],
      "stateMutability": "nonpayable",
      "type": "function"
    },
    {
      "inputs": [
        {
          "internalType": "string",
          "name": "_fileHash",
          "type": "string"
        }
      ],
      "name": "verifyCertificate",
      "outputs": [
        {
          "internalType": "bool",
          "name": "isValid",
          "type": "bool"
        },
        {
          "internalType": "string",
          "name": "studentName",
          "type": "string"
        },
        {
          "internalType": "string",
          "name": "course",
          "type": "string"
        },
        {
          "internalType": "string",
          "name": "institute",
          "type": "string"
        },
        {
          "internalType": "uint256",
          "name": "timestamp",
          "type": "uint256"
        },
        {
          "internalType": "address",
          "name": "issuer",
          "type": "address"
        }
      ],
      "stateMutability": "view",
      "type": "function"
    }
  ],
  "bytecode": "0x608060405234801561001057600080fd5b5033600160006101000a81548173ffffffffffffffffffffffffffffffffffffffff021916908373ffffffffffffffffffffffffffffffffffffffff1602179055506111d7806100616000396000f3fe608060405234801561001057600080fd5b506004361061004c5760003560e01c806348f6d2e2146100515780638b23d8751461006d5780638da5cb5b146100a25780638f2b91ea146100c0575b600080fd5b61006b60048036038101906100669190610a9d565b6100f6565b005b61008760048036038101906100829190610b74565b6102f0565b60405161009996959493929190610cb1565b60405180910390f35b6100aa610678565b6040516100b79190610d27565b60405180910390f35b6100da60048036038101906100d59190610b74565b61069e565b6040516100ed9796959493929190610d42565b60405180910390f35b600080856040516101079190610e09565b9081526020016040518091039020600001805461012390610e4f565b905014610165576040517f08c379a000000000000000000000000000000000000000000000000000000000815260040161015c90610ecc565b60405180910390fd5b6040518060e001604052808581526020018481526020018381526020018281526020014281526020013373ffffffffffffffffffffffffffffffffffffffff168152602001600115158152506000856040516101c19190610e09565b908152602001604051809103902060008201518160000190816101e49190611098565b5060208201518160010190816101fa9190611098565b5060408201518160020190816102109190611098565b5060608201518160030190816102269190611098565b506080820151816004015560a08201518160050160006101000a81548173ffffffffffffffffffffffffffffffffffffffff021916908373ffffffffffffffffffffffffffffffffffffffff16021790555060c08201518160050160146101000a81548160ff021916908315150217905550905050836040516102a99190610e09565b60405180910390207fa8c9a80654a8b70efd2411a076ca8d55b1ed22d036b4e24d1bf2a2375ed9491f84836040516102e292919061116a565b60405180910390a250505050565b600060608060606000806000808860405161030b9190610e09565b90815260200160405180910390206040518060e001604052908160008201805461033490610e4f565b80601f016020809104026020016040519081016040528092919081815260200182805461036090610e4f565b80156103ad5780601f10610382576101008083540402835291602001916103ad565b820191906000526020600020905b81548152906001019060200180831161039057829003601f168201915b505050505081526020016001820180546103c690610e4f565b80601f01602080910402602001604051908101604052809291908181526020018280546103f290610e4f565b801561043f5780601f106104145761010080835404028352916020019161043f565b820191906000526020600020905b81548152906001019060200180831161042257829003601f168201915b5050505050815260200160028201805461045890610e4f565b80601f016020809104026020016040519081016040528092919081815260200182805461048490610e4f565b80156104d15780601f106104a6576101008083540402835291602001916104d1565b820191906000526020600020905b8154815290600101906020018083116104b457829003601f168201915b505050505081526020016003820180546104ea90610e4f565b80601f016020809104026020016040519081016040528092919081815260200182805461051690610e4f565b80156105635780601f1061053857610100808354040283529160200191610563565b820191906000526020600020905b81548152906001019060200180831161054657829003601f168201915b50505050508152602001600482015481526020016005820160009054906101000a900473ffffffffffffffffffffffffffffffffffffffff1673ffffffffffffffffffffffffffffffffffffffff1673ffffffffffffffffffffffffffffffffffffffff1681526020016005820160149054906101000a900460ff16151515158152505090506000816000015151036106435760008060006040518060200160405280600081525091906040518060200160405280600081525091906040518060200160405280600081525091909650965096509650965096505061066f565b8060c0015181602001518260400151836060015184608001518560a00151965096509650965096509650505b91939550919395565b600160009054906101000a900473ffffffffffffffffffffffffffffffffffffffff1681565b6000818051602081018201805184825260208301602085012081835280955050505050506000915090508060000180546106d790610e4f565b80601f016020809104026020016040519081016040528092919081815260200182805461070390610e4f565b80156107505780601f1061072557610100808354040283529160200191610750565b820191906000526020600020905b81548152906001019060200180831161073357829003601f168201915b50505050509080600101805461076590610e4f565b80601f016020809104026020016040519081016040528092919081815260200182805461079190610e4f565b80156107de5780601f106107b3576101008083540402835291602001916107de565b820191906000526020600020905b8154815290600101906020018083116107c157829003601f168201915b5050505050908060020180546107f390610e4f565b80601f016020809104026020016040519081016040528092919081815260200182805461081f90610e4f565b801561086c5780601f106108415761010080835404028352916020019161086c565b820191906000526020600020905b81548152906001019060200180831161084f57829003601f168201915b50505050509080600301805461088190610e4f565b80601f01602080910402602001604051908101604052809291908181526020018280546108ad90610e4f565b80156108fa5780601f106108cf576101008083540402835291602001916108fa565b820191906000526020600020905b8154815290600101906020018083116108dd57829003601f168201915b5050505050908060040154908060050160009054906101000a900473ffffffffffffffffffffffffffffffffffffffff16908060050160149054906101000a900460ff16905087565b6000604051905090565b600080fd5b600080fd5b600080fd5b600080fd5b6000601f19601f8301169050919050565b7f4e487b7100000000000000000000000000000000000000000000000000000000600052604160045260246000fd5b6109aa82610961565b810181811067ffffffffffffffff821117156109c9576109c8610972565b5b80604052505050565b60006109dc610943565b90506109e882826109a1565b919050565b600067ffffffffffffffff821115610a0857610a07610972565b5b610a1182610961565b9050602081019050919050565b82818337600083830152505050565b6000610a40610a3b846109ed565b6109d2565b905082815260208101848484011115610a5c57610a5b61095c565b5b610a67848285610a1e565b509392505050565b600082601f830112610a8457610a83610957565b5b8135610a94848260208601610a2d565b91505092915050565b60008060008060808587031215610ab757610ab661094d565b5b600085013567ffffffffffffffff811115610ad557610ad4610952565b5b610ae187828801610a6f565b945050602085013567ffffffffffffffff811115610b0257610b01610952565b5b610b0e87828801610a6f565b935050604085013567ffffffffffffffff811115610b2f57610b2e610952565b5b610b3b87828801610a6f565b925050606085013567ffffffffffffffff811115610b5c57610b5b610952565b5b610b6887828801610a6f565b91505092959194509250565b600060208284031215610b8a57610b8961094d565b5b600082013567ffffffffffffffff811115610ba857610ba7610952565b5b610bb484828501610a6f565b91505092915050565b60008115159050919050565b610bd281610bbd565b82525050565b600081519050919050565b600082825260208201905092915050565b60005b83811015610c12578082015181840152602081019050610bf7565b60008484015250505050565b6000610c2982610bd8565b610c338185610be3565b9350610c43818560208601610bf4565b610c4c81610961565b840191505092915050565b6000819050919050565b610c6a81610c57565b82525050565b600073ffffffffffffffffffffffffffffffffffffffff82169050919050565b6000610c9b82610c70565b9050919050565b610cab81610c90565b82525050565b600060c082019050610cc66000830189610bc9565b8181036020830152610cd88188610c1e565b90508181036040830152610cec8187610c1e565b90508181036060830152610d008186610c1e565b9050610d0f6080830185610c61565b610d1c60a0830184610ca2565b979650505050505050565b6000602082019050610d3c6000830184610ca2565b92915050565b600060e0820190508181036000830152610d5c818a610c1e565b90508181036020830152610d708189610c1e565b90508181036040830152610d848188610c1e565b90508181036060830152610d988187610c1e565b9050610da76080830186610c61565b610db460a0830185610ca2565b610dc160c0830184610bc9565b98975050505050505050565b600081905092915050565b6000610de382610bd8565b610ded8185610dcd565b9350610dfd818560208601610bf4565b80840191505092915050565b6000610e158284610dd8565b915081905092915050565b7f4e487b7100000000000000000000000000000000000000000000000000000000600052602260045260246000fd5b60006002820490506001821680610e6757607f821691505b602082108103610e7a57610e79610e20565b5b50919050565b7f436572746966696361746520616c726561647920726567697374657265640000600082015250565b6000610eb6601e83610be3565b9150610ec182610e80565b602082019050919050565b60006020820190508181036000830152610ee581610ea9565b9050919050565b60008190508160005260206000209050919050565b60006020601f8301049050919050565b600082821b905092915050565b600060088302610f4e7fffffffffffffffffffffffffffffffffffffffffffffffffffffffffffffffff82610f11565b610f588683610f11565b95508019841693508086168417925050509392505050565b6000819050919050565b6000610f95610f90610f8b84610c57565b610f70565b610c57565b9050919050565b6000819050919050565b610faf83610f7a565b610fc3610fbb82610f9c565b848454610f1e565b825550505050565b600090565b610fd8610fcb565b610fe3818484610fa6565b505050565b5b8181101561100757610ffc600082610fd0565b600181019050610fe9565b5050565b601f82111561104c5761101d81610eec565b61102684610f01565b81016020851015611035578190505b61104961104185610f01565b830182610fe8565b50505b505050565b600082821c905092915050565b600061106f60001984600802611051565b1980831691505092915050565b6000611088838361105e565b9150826002028217905092915050565b6110a182610bd8565b67ffffffffffffffff8111156110ba576110b9610972565b5b6110c48254610e4f565b6110cf82828561100b565b600060209050601f83116001811461110257600084156110f0578287015190505b6110fa858261107c565b865550611162565b601f19841661111086610eec565b60005b8281101561113857848901518255600182019150602085019450602081019050611113565b868310156111555784890151611151601f89168261105e565b8355505b6001600288020188555050505b505050505050565b600060408201905081810360008301526111848185610c1e565b905081810360208301526111988184610c1e565b9050939250505056fea264697066735822122069ed603766986f9f11802fdbbf0907aceebaecb06aaf6c8c4506baa3cd351b8b64736f6c63430008130033",
  "linkReferences": {},
  "deployedLinkReferences": {}
}